:020000040000FA
:10000000012883168F308100831200308B00831605
:1000100000308C00831665308F00831665309000A9
:1000200083121430850083161430850083165830EF
:100030009F008316003095008316003096008312CF
:10004000003090008312063092008312073099002E
:10005000831200309A0083160030990083120D300D
:100060009F008312003095008316003092008312A7
:10007000851200006400051D3B2805193D2801304C
:10008000A000A00B41289F149F1844281E08A3001D
:10009000A309031100302306031956280311FF306A
:1000A0002306031939285920A30B53286120392826
:1000B00039280830A000A00B5B2864000000000075
:1000C000080085162030A000A00B64286400000002
:0400D000851208008D
:0400D40000340034C0
:02400E00CC33B1
:00000001FF
