:020000040000FA
:020000002628B0
:040002000034003492
:08000800A1000308A200050895
:100010008B100130A000A00B0B289F149F180E28F6
:100020001E08A300A309031100302306031920288A
:100030000311FF302306031921284C20A30B1D2890
:10004000542022088300A10E210E0900FF238316ED
:100050009000831600308100831290308B0083164D
:1000600000308C0083161430850083160030950014
:1000700083160030960083120730990083160030F3
:10008000990083120D309F00831658309F00831211
:1000900085120000640049280830A000A00B4E28FB
:1000A000640000000000080085162030A000A00BAE
:0A00B00057286400000085120800C4
:02400E00CC3FA5
:00000001FF
