:020000040000FA
:020000003A289C
:08000800A016F430A500A100D0
:100010000308A20006080B108B10061C11282017DD
:100020001228A01722088300A10E210E09000F3903
:100030008207303431343234333434343534363466
:100040003734383439344134423443344434453419
:1000500046340F3982070000EB2CF52CFF2C092DBC
:10006000132D1D2D272D312D3B2D452D4F2D592D78
:10007000632D6D2D8312831603130D3081008312BF
:10008000031318308B008316031300308C00831683
:1000900003132C308500831603133130860083163A
:1000A0000313013087008312031300309000831282
:1000B000031306309200831203130C30970083124F
:1000C00003130C309D0083160313623092008316D5
:1000D000031300309400831203130030940083163E
:1000E000031300309100831603130030980083122D
:1000F0000313003098008312031300309F0083160F
:10010000031300309F008312AE24C32482260130E3
:1001100004246E26063004240C30042414300424F5
:1001200038300424A010061C4424B501A01220136A
:10013000A013BD25D82503110030440603191F2143
:100140002012A011BD25732445198224451D8B243E
:10015000C5199324C51D9C244518A424451CAE2410
:10016000C518B924C51CC324CE2444227422E42417
:100170002011060864004519F822C5196B238B1756
:100180003523A223201BD4208B17A01B58228B17AA
:10019000A01EB828A50BB8288B13A0120426A01007
:1001A000D4300424AE26B8288B133330AC000C3086
:1001B000AD000430AE00861AE728AC0BDB286400E3
:1001C000AD0BDB28AE0BDB2820138B170800642651
:1001D0003330AC000C30AD000430AE00861EFA287F
:1001E000AC0BEE286400AD0BEE28AE0BEE2820130E
:1001F0008B170800A0180E29201A2229A0194929B6
:1002000044187029C41874294419282AC4198C293F
:10021000441A9029C41A2C2A441B302A061A12297F
:10022000061E1A290310441B1729C40D742A4030D6
:10023000C400742A031044181F29C40C742A013006
:10024000C400742A061A2629061E2C2903116330BD
:100250003606031D3229D428031100303606031D4B
:100260003429D428B60A3629B6033629B10136080E
:10027000B000D623863004243030A7004108172070
:10028000A706031920300924420817200924B126A3
:100290000800061A4D29061E53290311633037063C
:1002A000031D5929D428031100303706031D5B298B
:1002B000D428B70A5D29B7035D29B1013708B0001A
:1002C000D623863004243030A70041081720A70623
:1002D000031920300924420817200924B1260800F8
:1002E000061A822C061E8B2C45197829451DBF291C
:1002F000061A7C29061E82290311FF304606031DBB
:100300008829D42803110A304606031D8A29D428D7
:10031000C60AA829C603A829061A932C061E9C2CD7
:10032000C5199429C51DE829061A9829061E9E2973
:100330000311FF304806031DA429D42803110A30F5
:100340004806031DA629D428C80AFC29C803FC298D
:10035000B1014608B000B200D6238B300424EA264F
:100360003030A70040081720A706031920300924C1
:100370004108172009244208172009240800061AFA
:10038000C329061EC929031163304706031DCF295F
:10039000D428031100304706031DD129D428C70AE9
:1003A000D329C703D329B1014708B0009B00D62346
:1003B0008B300424D2263030A70041081720A7062E
:1003C000031920300924420817200924B126080007
:1003D000061AEC29061EF229031163304906031D93
:1003E000F829D428031100304906031DFA29D4281E
:1003F000C90A132AC903132AB1014808B000B3007F
:10040000D623CB300424EA263030A700400817203A
:10041000A70603192030092441081720092442089F
:10042000172009240800B1014908B0009500D6231F
:10043000CB300424D2263030A70041081720A7066D
:10044000031920300924420817200924B126080086
:10045000061AA42C061EAE2C061AB92C061EC32C96
:10046000061A342A061E3A2A03110E304306031DCB
:10047000402AD428031101304306031D422AD42800
:10048000C30A442AC303442AB1014308B000D62357
:10049000A13004243030A70041081720A706031913
:1004A000203009244208172009244308292808007D
:1004B0008B13A0130130AC004530AD001530AE00F9
:1004C000AC0B602A06186B2A6400AD0B602AAE0BD9
:1004D000602AC625022F0230A006D4300424A018BA
:1004E000E126A01CAE2608008B254418A125C418BF
:1004F000A5254419A925C419AD25441AB125C41A46
:10050000B525441BB925A01320138B17080020150F
:10051000AD22C2222230A6003523A223061CAA2A1D
:10052000C519A52AF82220180800F822201808006A
:10053000F822F822F822F822F822F822F822F822EB
:10054000A60B8C2A2019A72A08006B23952A0130B4
:10055000A6008C2AAE242010A228B000B200B1015F
:10056000D623943004243030A70040081720A70673
:1005700003192030092441081720092442081720B4
:1005800009240800AA0FC52AAB0F2A08B0002B08BF
:10059000B100D6239A3004243030A7004008172039
:1005A000A7060319DB2A0924410817200924420859
:1005B000172009240800AE263030A7004108172074
:1005C000A70603192030092442081720092408002F
:1005D000AA01AB01DD24A42497300424B426C32649
:1005E000AE269D300424D526AE26D226E726080066
:1005F000831203139130071CA1309F00831603134D
:1006000080309F00831264261F155E261F19062B5B
:100610001E08B100831603131E088312B0000311D5
:1006200003013106031D212B300803103202031C85
:10063000212B1A2B0311201037083406031D2C2BF5
:100640000800201120180800031100303406031D93
:10065000302B03019B000800B40A34089B000800FB
:10066000B403B40134089B000800831203139130D3
:10067000071CA1309F008316031380309F00831254
:1006800064261F155E261F19432B1E08B100831612
:1006900003131E088312B000D623813004243F08C0
:1006A0003F18672B31080310023031020318672B03
:1006B0003030A70040081720A7060319203009246E
:1006C0004108172009244208172009240800A526FC
:1006D000A526A52608008312031399309F008316D0
:1006E000031380309F00831264261F155E261F1996
:1006F000772B1E08B100831603131E088312B00067
:10070000031103013106031D912B3008031033023E
:10071000031C912B8B2B031136083506031D992BD7
:100720000800031100303506031D9D2B03019500C1
:100730000800B50A350895000800B503B50135086D
:10074000950008008312031399309F00831603134A
:1007500080309F00831264261F155E261F19AE2B62
:100760001E08B100831603131E088312B000D6239F
:10077000C13004243F083F18D22B31080310023047
:1007800031020318D22B3030A70040081720A706EB
:100790000319203009244108172009244208172092
:1007A00009240800A526A526A52608003008BD00B6
:1007B0003108BC001030B800B901BA01BB01F22BFE
:1007C0003330B907BA07BB070330B91DB902BA1DE8
:1007D000BA02BB1DBB023030B91FB902BA1FBA0240
:1007E000BB1FBB02BD0DBC0DBB0DBA0DB90DB80BC7
:1007F000E02B3908BE003A0EBF003A08C0003B0E9D
:10080000C1003B08C2000800A30033243C240E248E
:100810000800A300332440240E240800A31B07165D
:10082000A31F0712231B8716231F8712A31A07175C
:10083000A31E0713231A8717231E8713A3198614D1
:10084000A31D861023190615231D0611A31886154E
:10085000A31C861123180617231C061338246426AC
:100860003324642608002416241024088500080078
:100870002414240885000800A4102408850008001A
:10088000A414240885000800BD2580300424BA265D
:10089000D226E426DB26ED26A526D8253621852678
:1008A0002016D4200618502C64008312031707303A
:1008B0008D0083120313360840262012BD25803098
:1008C0000424B7265D218526A015D4200618642CA3
:1008D00064008312031708308D0083120313370856
:1008E0004026A011080080300424B7268430042458
:1008F000B426C326C0300424BA26C4300424B42647
:10090000C326080087300424BD26C026D8264515F6
:10091000F025A821080087300424D226F926FF26D6
:100920004511D3210800C7300424BD26C026D8268F
:10093000C515F025FC210800C7300424D226F9266D
:10094000FF26C5111322080090300424C026C926B2
:10095000F326AE260C309D00451408009030042488
:10096000CF26D826C926F32600309D0087104510D3
:100970000800D0300424C026C926F326AE260C3049
:100980009700C5140800D0300424CF26D826C926E5
:10099000F326003097000711C51008009530042495
:1009A000D826C626D226CC26CF26F626D226CF2675
:1009B000FC26F026F326DE260800A4300424F626C2
:1009C000F926C326C9260800A4300424C326D82645
:1009D000CF26F626080077258325E03004249326C9
:1009E000A2269026B426C326080077258325E0306A
:1009F00004249326A2269F26B426C3260800772522
:100A00008325E0300424962690269026B426C3261B
:100A1000080077258325E0300424962690269F261B
:100A2000B426C326080077258325E03004249626C3
:100A300093269026B426C326080077258325E03028
:100A40000424962693269F26B426C32608007725DD
:100A50008325E0300424962696269026B426C326C5
:100A600008007D258325E0300424962696269F26BF
:100A7000B426C32608007D258325E030042496266D
:100A800099269026B426C32608007D258325E030CC
:100A90000424962699269F26B426C32608007D2581
:100AA0008325E030042496269C269026B426C3266F
:100AB00008007D258325E030042496269C269F2669
:100AC000B426C32608007D258325E030042496261D
:100AD0009F269026B426C32608007D258325E03076
:100AE000042496269F269F26B426C3260800D730C6
:100AF0000424D226DE26A8260800D7300424D226D5
:100B0000DE26A5260800DB300424D826E426DB26D2
:100B1000ED26A526080086300424AE268A3004245B
:100B2000AE268F300424AE26C6300424AE26CA304A
:100B30000424AE26CF300424AE2694300424AE26FE
:100B4000080086300424AB2608008A300424AB2633
:100B500008008F300424AB260800C6300424AB26DE
:100B60000800CA300424AB260800CF300424AB268A
:100B7000080094300424AB2608007830A9005426DD
:100B8000051254260516A90BBF2D080000309D0044
:100B90008710BD25BD25BD25BD25BD25BD25BD2590
:100BA000BD25BD25BD25BD25BD250C309D000800FA
:100BB00064000030F725C3000130F725C40002307F
:100BC000F725C50064000330F725C6000430F7257B
:100BD000C7000530F725C80064000630F725C900B6
:100BE0000730F725B6000830F725B7000800831254
:100BF00003178D00831603178C130C14831203172D
:100C00000C088312031308006400831203170030DA
:100C10008D0083120313430840268312031701300B
:100C20008D008312031344084026831203170230F9
:100C30008D008312031345084026640083120317B6
:100C400003308D00831203134608402683120317D6
:100C500004308D00831203134708402683120317C4
:100C600005308D0083120313480840266400831268
:100C7000031706308D00831203134908402608002D
:100C8000831203178C00831603178C130C15553031
:100C90008D00AA308D008C14831603178C184E2EED
:100CA0000C118312031308009730A7000330A8002B
:100CB000A70B582EA80B582E640008003530A7004B
:100CC000A70B602E000008002E30A7000630A800F9
:100CD000A70B682EA80B682E640008006426642603
:100CE0006426642664260800BA30A7000430A800F1
:100CF0000230A900A70B7A2EA80B7A2EA90B7A2E08
:100D00006400080074267426080082268226822643
:100D10008226822682268226822682268226080033
:100D20003030092408003130092408003230092409
:100D30000800333009240800343009240800353015
:100D4000092408003930092408002D30092408003E
:100D50002B30092408003E300924080020300924E3
:100D60000800253009240800DF3009240800D930A4
:100D700009240800DA300924080041300924080059
:100D80004230092408004330092408004530092472
:100D900008004B30092408004D30092408004F306A
:100DA00009240800503009240800533009240800A1
:100DB00054300924080061300924080062300924F5
:100DC00008006B30092408006D30092408007230D7
:100DD0000924080074300924080078300924080028
:100DE000A53009240800A73009240800A8300924E8
:100DF0000800A93009240800AA3009240800AB30F3
:040E000009240800B9
:101000000A128A15201443080F3982070000172896
:10101000942811299E293B2AE82AA92B762CD32C27
:10102000402DC12D4E2EEF2E8A110A1602288A114C
:101030000A12E8228A110A16C7208A110A16A82263
:10104000B5308A110A128722B6308A110A12872215
:10105000B7308A110A128722B8308A110A12872201
:10106000B9308A110A128722BA308A110A128722ED
:10107000BB308A110A128722BC308A110A128722D9
:10108000BD308A110A128722BE308A110A128722C5
:10109000BE308A110A128722BE308A110A128722B4
:1010A000BE308A110A128722BE308A110A128722A4
:1010B000BE308A110A128722BE308A110A12872294
:1010C000BE308A110A128722BE308A110A12872284
:1010D000BE308A110A1287228A110A12C625BE3032
:1010E0008A110A128722BE308A110A128722BE3064
:1010F0008A110A128722BE308A110A128722BE3054
:101100008A110A128722BB308A110A128722B8304C
:101110008A110A1287228A110A169F268A110A1238
:10112000AE248A110A12A2288A110A12E8228A1110
:101130000A16C7208A110A16A822B6308A110A1286
:101140008722B8308A110A128722BA308A110A120D
:101150008722BC308A110A128722BE308A110A12F5
:101160008722C0308A110A128722C2308A110A12DD
:101170008722C3308A110A128722C3308A110A12C9
:101180008722C3308A110A128722C3308A110A12B9
:101190008722C3308A110A128722C3308A110A12A9
:1011A0008722C3308A110A128722C3308A110A1299
:1011B0008722C3308A110A128722C3308A110A1289
:1011C00087228A110A12C625C3308A110A12872281
:1011D000C3308A110A128722C3308A110A12872269
:1011E000C3308A110A128722C3308A110A12872259
:1011F000C0308A110A128722BD308A110A12872252
:10120000BA308A110A128722B7308A110A1287224D
:101210008A110A169F268A110A12AE248A110A120E
:10122000A2288A110A12E8228A110A16C7208A11F6
:101230000A16A822B6308A110A128722B8308A11FB
:101240000A128722BA308A110A128722BC308A1108
:101250000A128722BE308A110A128722C0308A11F0
:101260000A128722C2308A110A128722C4308A11D8
:101270000A128722C6308A110A128722C8308A11C0
:101280000A128722C8308A110A128722C8308A11AE
:101290000A128722C8308A110A128722C8308A119E
:1012A0000A128722C8308A110A128722C8308A118E
:1012B0000A128722C8308A110A128722C8308A117E
:1012C0000A128722C8308A110A1287228A110A124A
:1012D000C625C8308A110A128722C8308A110A121C
:1012E0008722C8308A110A128722C8308A110A124E
:1012F0008722C8308A110A128722C5308A110A1241
:101300008722C2308A110A128722BF308A110A123C
:101310008722BC308A110A128722B9308A110A1238
:101320008722B6308A110A1287228A110A169F264E
:101330008A110A12AE248A110A12A2288A110A12EC
:10134000E8228A110A16C7208A110A16A822B63086
:101350008A110A128722B8308A110A128722BA30FB
:101360008A110A128722BC308A110A128722BE30E3
:101370008A110A128722C0308A110A128722C230CB
:101380008A110A128722C4308A110A128722C630B3
:101390008A110A128722C8308A110A128722CA309B
:1013A0008A110A128722CC308A110A128722CD3084
:1013B0008A110A128722CD308A110A128722CD3073
:1013C0008A110A128722CD308A110A128722CD3063
:1013D0008A110A128722CD308A110A128722CD3053
:1013E0008A110A128722CD308A110A128722CD3043
:1013F0008A110A128722CD308A110A1287228A1195
:101400000A12C625CD308A110A128722CD308A11E0
:101410000A128722CD308A110A128722CD308A1112
:101420000A128722CD308A110A128722CA308A1105
:101430000A128722C7308A110A128722C4308A1101
:101440000A128722C1308A110A128722BE308A11FD
:101450000A128722BB308A110A128722B7308A11FA
:101460000A1287228A110A169F268A110A12AE24AE
:101470008A110A12A2288A110A12E8228A110A166F
:10148000C7208A110A16A822B6308A110A128722AA
:10149000B8308A110A128722BA308A110A128722BA
:1014A000BC308A110A128722BE308A110A128722A2
:1014B000C0308A110A128722C2308A110A1287228A
:1014C000C4308A110A128722C6308A110A12872272
:1014D000C8308A110A128722CA308A110A1287225A
:1014E000CC308A110A128722CE308A110A12872242
:1014F000D0308A110A128722D2308A110A1287222A
:10150000D2308A110A128722D2308A110A12872217
:10151000D2308A110A128722D2308A110A12872207
:10152000D2308A110A128722D2308A110A128722F7
:10153000D2308A110A128722D2308A110A128722E7
:10154000D2308A110A1287228A110A12C625D23095
:101550008A110A128722D2308A110A128722D230C7
:101560008A110A128722D2308A110A128722D230B7
:101570008A110A128722CF308A110A128722CC30B0
:101580008A110A128722C9308A110A128722C630AC
:101590008A110A128722C3308A110A128722C030A8
:1015A0008A110A128722BD308A110A128722BA30A4
:1015B0008A110A128722B7308A110A1287228A11E9
:1015C0000A169F268A110A12AE248A110A12A2282C
:1015D0008A110A12E8228A110A16C7208A110A16ED
:1015E000A822B6308A110A128722B8308A110A124C
:1015F0008722BA308A110A128722BC308A110A1255
:101600008722BE308A110A128722C0308A110A123C
:101610008722C2308A110A128722C4308A110A1224
:101620008722C6308A110A128722C8308A110A120C
:101630008722CA308A110A128722CC308A110A12F4
:101640008722CE308A110A128722D0308A110A12DC
:101650008722D2308A110A128722D4308A110A12C4
:101660008722D6308A110A128722D7308A110A12AD
:101670008722D7308A110A128722D7308A110A129C
:101680008722D7308A110A128722D7308A110A128C
:101690008722D7308A110A128722D7308A110A127C
:1016A0008722D7308A110A128722D7308A110A126C
:1016B0008722D7308A110A1287228A110A12C62578
:1016C000D7308A110A128722D7308A110A1287224C
:1016D000D7308A110A128722D7308A110A1287223C
:1016E000D7308A110A128722D4308A110A1287222F
:1016F000D1308A110A128722CE308A110A1287222B
:10170000CB308A110A128722C8308A110A12872226
:10171000C5308A110A128722C2308A110A12872222
:10172000BF308A110A128722BC308A110A1287221E
:10173000B9308A110A128722B6308A110A1287221A
:101740008A110A169F268A110A12AE248A110A12D9
:10175000A2288A110A12E8228A110A16C7208A11C1
:101760000A16A822B6308A110A128722B8308A11C6
:101770000A128722BA308A110A128722BC308A11D3
:101780000A128722BE308A110A128722C0308A11BB
:101790000A128722C2308A110A128722C4308A11A3
:1017A0000A128722C6308A110A128722C8308A118B
:1017B0000A128722CA308A110A128722CC308A1173
:1017C0000A128722CE308A110A128722D0308A115B
:1017D0000A128722D2308A110A128722D4308A1143
:1017E0000A128722D6308A110A128722D8308A112B
:1017F0000A128722DA308A110A128722DC308A1113
:101800000A128722DC308A110A128722DC308A1100
:101810000A128722DC308A110A128722DC308A11F0
:101820000A128722DC308A110A128722DC308A11E0
:101830000A128722DC308A110A128722DC308A11D0
:101840000A128722DC308A110A1287228A110A12B0
:10185000C625DC308A110A128722DC308A110A126E
:101860008722DC308A110A128722DC308A110A12A0
:101870008722DC308A110A128722D9308A110A1293
:101880008722D6308A110A128722D3308A110A128F
:101890008722D0308A110A128722CD308A110A128B
:1018A0008722CA308A110A128722C6308A110A1288
:1018B0008722C3308A110A128722C0308A110A1285
:1018C0008722BD308A110A128722BA308A110A1281
:1018D0008722B7308A110A1287228A110A169F2698
:1018E0008A110A12AE248A110A12A2288A110A1237
:1018F000E8228A110A16C7208A110A161124DE303E
:101900008A110A128722E0308A110A128722E130F6
:101910008A110A128722E1308A110A128722E130E5
:101920008A110A128722E1308A110A128722E130D5
:101930008A110A128722E1308A110A128722E130C5
:101940008A110A128722E1308A110A128722E130B5
:101950008A110A128722E1308A110A1287228A111B
:101960000A12C625E1308A110A128722E1308A1153
:101970000A128722E1308A110A128722E1308A1185
:101980000A128722E1308A110A128722DE308A1178
:101990000A1287228A110A16F0268A110A12AE2428
:1019A0008A110A12A2288A110A12E8228A110A163A
:1019B000C7208A110A161124DE308A110A128722E2
:1019C000E0308A110A128722E2308A110A12872235
:1019D000E4308A110A128722E6308A110A1287221D
:1019E000E6308A110A128722E6308A110A1287220B
:1019F000E6308A110A128722E6308A110A128722FB
:101A0000E6308A110A128722E6308A110A128722EA
:101A1000E6308A110A128722E6308A110A128722DA
:101A2000E6308A110A1287228A110A12C625E63088
:101A30008A110A128722E6308A110A128722E630BA
:101A40008A110A128722E6308A110A128722E630AA
:101A50008A110A128722E3308A110A128722E030A3
:101A60008A110A128722DD308A110A1287228A110E
:101A70000A16F0268A110A12AE248A110A12A22826
:101A80008A110A12E8228A110A16C7208A110A1638
:101A90001124DE308A110A128722E0308A110A12DC
:101AA0008722E2308A110A128722E4308A110A1250
:101AB0008722E6308A110A128722E8308A110A1238
:101AC0008722EA308A110A128722EB308A110A1221
:101AD0008722EB308A110A128722EB308A110A1210
:101AE0008722EB308A110A128722EB308A110A1200
:101AF0008722EB308A110A128722EB308A110A12F0
:101B00008722EB308A110A128722EB308A110A12DF
:101B10008722EB308A110A1287228A110A12C625FF
:101B2000EB308A110A128722EB308A110A128722BF
:101B3000EB308A110A128722EB308A110A128722AF
:101B4000EB308A110A128722E8308A110A128722A2
:101B5000E5308A110A128722E2308A110A1287229E
:101B6000DF308A110A128722DC308A110A1287229A
:101B70008A110A16F0268A110A12AE248A110A1254
:101B8000A2288A110A12E8228A110A16C7208A118D
:101B90000A161124DE308A110A128722E0308A11D7
:101BA0000A128722E2308A110A128722E4308A114F
:101BB0000A128722E6308A110A128722E8308A1137
:101BC0000A128722EA308A110A128722EC308A111F
:101BD0000A128722EE308A110A128722F0308A1107
:101BE0000A128722F0308A110A128722F0308A11F5
:101BF0000A128722F0308A110A128722F0308A11E5
:101C00000A128722F0308A110A128722F0308A11D4
:101C10000A128722F0308A110A128722F0308A11C4
:101C20000A128722F0308A110A1287228A110A12B8
:101C3000C625F0308A110A128722F0308A110A1262
:101C40008722F0308A110A128722F0308A110A1294
:101C50008722F0308A110A128722ED308A110A1287
:101C60008722EA308A110A128722E7308A110A1283
:101C70008722E4308A110A128722E1308A110A127F
:101C80008722DE308A110A1287228A110A16F0266C
:101C90008A110A12AE248A110A12A2288A110A1283
:101CA000E8228A110A16C7208A110A161124DE308A
:101CB0008A110A128722E0308A110A128722E23042
:101CC0008A110A128722E4308A110A128722E6302A
:101CD0008A110A128722E8308A110A128722EA3012
:101CE0008A110A128722EC308A110A128722EE30FA
:101CF0008A110A128722F0308A110A128722F230E2
:101D00008A110A128722F4308A110A128722F530CA
:101D10008A110A128722F5308A110A128722F530B9
:101D20008A110A128722F5308A110A128722F530A9
:101D30008A110A128722F5308A110A128722F53099
:101D40008A110A128722F5308A110A128722F53089
:101D50008A110A128722F5308A110A1287228A1103
:101D60000A12C625F5308A110A128722F5308A1127
:101D70000A128722F5308A110A128722F5308A1159
:101D80000A128722F5308A110A128722F2308A114C
:101D90000A128722EF308A110A128722EC308A1148
:101DA0000A128722E9308A110A128722E6308A1144
:101DB0000A128722E3308A110A128722E0308A1140
:101DC0000A128722DD308A110A1287228A110A1626
:101DD000F0268A110A12AE248A110A12A2288A1148
:101DE0000A12E8228A110A16C7208A110A1611243B
:101DF000DE308A110A128722E0308A110A12872205
:101E0000E2308A110A128722E4308A110A128722EC
:101E1000E6308A110A128722E8308A110A128722D4
:101E2000EA308A110A128722EC308A110A128722BC
:101E3000EE308A110A128722F0308A110A128722A4
:101E4000F2308A110A128722F4308A110A1287228C
:101E5000F6308A110A128722F8308A110A12872274
:101E6000FA308A110A128722FA308A110A1287225E
:101E7000FA308A110A128722FA308A110A1287224E
:101E8000FA308A110A128722FA308A110A1287223E
:101E9000FA308A110A128722FA308A110A1287222E
:101EA000FA308A110A128722FA308A110A1287221E
:101EB0008A110A12C625FA308A110A128722FA30CC
:101EC0008A110A128722FA308A110A128722FA30FE
:101ED0008A110A128722FA308A110A128722F730F1
:101EE0008A110A128722F4308A110A128722F130ED
:101EF0008A110A128722EE308A110A128722EB30E9
:101F00008A110A128722E8308A110A128722E530E4
:101F10008A110A128722E2308A110A128722DF30E0
:101F20008A110A128722DC308A110A1287228A114A
:101F30000A16F0268A110A12AE248A110A12A22861
:041F40000034003435
:102000000A168A118A110A12E8228A110A16C720B2
:102010008A110A161124DE308A110A128722E03052
:102020008A110A128722E2308A110A128722E430CA
:102030008A110A128722E6308A110A128722E830B2
:102040008A110A128722EA308A110A128722EC309A
:102050008A110A128722EE308A110A128722F03082
:102060008A110A128722F2308A110A128722F4306A
:102070008A110A128722F6308A110A128722F83052
:102080008A110A128722FA308A110A128722FC303A
:102090008A110A128722FE308A110A128722FF3023
:1020A0008A110A128722FF308A110A128722FF3012
:1020B0008A110A128722FF308A110A128722FF3002
:1020C0008A110A128722FF308A110A128722FF30F2
:1020D0008A110A128722FF308A110A128722FF30E2
:1020E0008A110A128722FF308A110A1287228A1166
:1020F0000A12C625FF308A110A128722FF308A1180
:102100000A128722FF308A110A128722FF308A11B1
:102110000A128722FF308A110A128722FC308A11A4
:102120000A128722F9308A110A128722F6308A11A0
:102130000A128722F3308A110A128722F0308A119C
:102140000A128722ED308A110A128722EA308A1198
:102150000A128722E7308A110A128722E5308A1193
:102160000A128722E2308A110A128722DF308A118E
:102170000A128722DC308A110A1287228A110A1673
:10218000F0268A110A12AE248A110A12A2281E30E1
:102190008A110A12872220308A110A1287222230DD
:1021A0008A110A12872224308A110A1287222630C5
:1021B0008A110A12872228308A110A1287222A30AD
:1021C0008A110A1287222C308A110A1287222E3095
:1021D0008A110A12872230308A110A12872232307D
:1021E0008A110A12872234308A110A128722363065
:1021F0008A110A12872238308A110A1287223A304D
:102200008A110A1287223C308A110A1287223E3034
:102210008A110A12872240308A110A12872242301C
:102220008A110A12872244308A110A128722463004
:102230008A110A12872247308A110A1287224830EF
:102240008A110A12872249308A110A1287224A30DB
:102250008A110A1287224B308A110A1287224C30C7
:102260008A110A1287224D308A110A1287224E30B3
:102270008A110A1287224F308A110A12872250309F
:102280008A110A12872251308A110A12872252308B
:102290008A110A12872253308A110A128722543077
:1022A0008A110A12872255308A110A128722563063
:1022B0008A110A12872257308A110A12872258304F
:1022C0008A110A12872259308A110A1287225A303B
:1022D0008A110A1287225B308A110A1287225C3027
:1022E0008A110A1287225D308A110A1287225E3013
:1022F0008A110A1287225F308A110A1287226030FF
:102300008A110A12872261308A110A1287226230EA
:102310008A110A12872263308A110A1287226430D6
:102320008A110A12872265308A110A1287226630C2
:102330008A110A12872267308A110A1287226830AE
:102340008A110A12872269308A110A1287226A309A
:102350008A110A1287226B308A110A1287226C3086
:102360008A110A1287226D308A110A1287226F3071
:102370008A110A12872270308A110A12872271305C
:102380008A110A12872272308A110A128722733048
:102390008A110A12872274308A110A128722753034
:1023A0008A110A12872276308A110A128722773020
:1023B0008A110A12872278308A110A12872279300C
:1023C0008A110A1287227A308A110A1287227B30F8
:1023D0008A110A1287227C308A110A1287227D30E4
:1023E0008A110A1287227E308A110A1287227F30D0
:1023F0008A110A12872280308A110A1287228130BC
:102400008A110A12872282308A110A1287228330A7
:102410008A110A12872284308A110A128722853093
:102420008A110A12872286308A110A12872287307F
:102430008A110A12872288308A110A12872289306B
:102440008A110A1287228A308A110A1287228B3057
:102450008A110A1287228C308A110A1287228C3044
:102460008A110A1287228C308A110A1287228D3033
:102470008A110A1287228D308A110A1287228D3022
:102480008A110A1287228E308A110A1287228E3010
:102490008A110A1287228E308A110A1287228F30FF
:1024A0008A110A1287228F308A110A1287228F30EE
:1024B0008A110A12872290308A110A1287229030DC
:1024C0008A110A12872290308A110A1287229130CB
:1024D0008A110A12872291308A110A1287229130BA
:1024E0008A110A12872292308A110A1287229230A8
:1024F0008A110A12872292308A110A128722933097
:102500008A110A12872293308A110A128722933085
:102510008A110A12872294308A110A128722943073
:102520008A110A12872294308A110A128722953062
:102530008A110A12872295308A110A128722953051
:102540008A110A12872296308A110A1287220800FD
:1025500096308A110A12872296308A110A1287222F
:1025600097308A110A12872297308A110A1287221D
:1025700097308A110A12872298308A110A1287220C
:1025800098308A110A12872298308A110A128722FB
:1025900099308A110A12872299308A110A128722E9
:1025A00099308A110A1287229A308A110A128722D8
:1025B0009A308A110A1287229A308A110A128722C7
:1025C0009B308A110A1287229B308A110A128722B5
:1025D0009B308A110A1287229C308A110A128722A4
:1025E0009C308A110A1287229C308A110A12872293
:1025F0009D308A110A1287229D308A110A12872281
:102600009D308A110A1287229E308A110A1287226F
:102610009E308A110A1287229E308A110A1287225E
:102620009F308A110A1287229F308A110A1287224C
:102630009F308A110A128722A0308A110A1287223B
:10264000A0308A110A128722A0308A110A1287222A
:10265000A1308A110A128722A1308A110A12872218
:10266000A1308A110A128722A2308A110A12872207
:10267000A2308A110A128722A2308A110A128722F6
:10268000A3308A110A128722A3308A110A128722E4
:10269000A3308A110A128722A4308A110A128722D3
:1026A000A4308A110A128722A4308A110A128722C2
:1026B000A5308A110A128722A5308A110A128722B0
:1026C000A5308A110A128722A6308A110A1287229F
:1026D000A6308A110A128722A6308A110A1287228E
:1026E000A7308A110A128722A7308A110A1287227C
:1026F000A7308A110A128722A8308A110A1287226B
:10270000A8308A110A128722A8308A110A12872259
:10271000A9308A110A128722A9308A110A12872247
:10272000A9308A110A128722AA308A110A12872236
:10273000AA308A110A128722AA308A110A12872225
:10274000AB308A110A128722AB308A110A12872213
:10275000AB308A110A128722AC308A110A12872202
:10276000AC308A110A128722AC308A110A128722F1
:10277000AD308A110A128722AD308A110A128722DF
:10278000AD308A110A128722AE308A110A128722CE
:10279000AE308A110A128722AE308A110A128722BD
:1027A000AF308A110A128722AF308A110A128722AB
:1027B000AF308A110A128722B0308A110A1287229A
:1027C000B0308A110A128722B0308A110A12872289
:1027D000B1308A110A128722B1308A110A12872277
:1027E000B1308A110A128722B2308A110A12872266
:1027F000B2308A110A128722B2308A110A12872255
:10280000B3308A110A128722B3308A110A12872242
:10281000B3308A110A128722B4308A110A12872231
:10282000080097308A110A12872298308A110A12FA
:10283000872298308A110A12872299308A110A1247
:1028400087229A308A110A1287229B308A110A1233
:1028500087229B308A110A1287229C308A110A1221
:1028600087229D308A110A1287229E308A110A120D
:1028700087229F308A110A128722A0308A110A12F9
:102880008722A0308A110A128722A1308A110A12E7
:102890008722A2308A110A128722A2308A110A12D4
:1028A0008722A3308A110A128722A4308A110A12C1
:1028B0008722A5308A110A128722A6308A110A12AD
:1028C0008722A6308A110A128722A7308A110A129B
:1028D0008722A8308A110A128722A9308A110A1287
:1028E0008722A9308A110A128722AA308A110A1275
:1028F0008722AB308A110A128722AC308A110A1261
:102900008722AD308A110A128722AD308A110A124D
:102910008722AE308A110A128722AF308A110A123A
:102920008722B0308A110A128722B0308A110A1227
:102930008722B1308A110A128722B2308A110A1214
:102940008722B3308A110A128722B4308A110A1200
:102950008722B4308A110A128722B5308A110A12EE
:102960008722B6308A110A128722B7308A110A12DA
:102970008722B7308A110A128722B8308A110A12C8
:102980008722B9308A110A128722BA308A110A12B4
:102990008722BB308A110A128722BB308A110A12A1
:1029A0008722BC308A110A128722BD308A110A128E
:1029B0008722BE308A110A128722BE308A110A127B
:1029C0008722BF308A110A128722C0308A110A1268
:1029D0008722C1308A110A128722C2308A110A1254
:1029E0008722C2308A110A128722C3308A110A1242
:1029F0008722C4308A110A128722C5308A110A122E
:102A00008722C5308A110A128722C6308A110A121B
:102A10008722C7308A110A128722C8308A110A1207
:102A20008722C9308A110A128722C9308A110A12F4
:102A30008722CA308A110A128722CB308A110A12E1
:102A40008722CC308A110A128722CC308A110A12CE
:102A50008722CD308A110A128722CE308A110A12BB
:102A60008722CF308A110A128722D0308A110A12A7
:102A70008722D0308A110A128722D1308A110A1295
:102A80008722D2308A110A128722D3308A110A1281
:102A90008722D3308A110A128722D4308A110A126F
:102AA0008722D5308A110A128722D6308A110A125B
:102AB0008722D7308A110A128722D7308A110A1248
:102AC0008722D8308A110A128722D9308A110A1235
:102AD0008722DA308A110A128722DA308A110A1222
:102AE0008722DB308A110A128722DC308A110A120F
:102AF0008722080097308A110A12872298308A119B
:102B00000A12872298308A110A12872299308A1174
:102B10000A1287229A308A110A1287229B308A1160
:102B20000A1287229B308A110A1287229C308A114E
:102B30000A1287229D308A110A1287229E308A113A
:102B40000A1287229F308A110A128722A0308A1126
:102B50000A128722A0308A110A128722A1308A1114
:102B60000A128722A2308A110A128722A2308A1101
:102B70000A128722A3308A110A128722A4308A11EE
:102B80000A128722A5308A110A128722A6308A11DA
:102B90000A128722A6308A110A128722A7308A11C8
:102BA0000A128722A8308A110A128722A9308A11B4
:102BB0000A128722A9308A110A128722AA308A11A2
:102BC0000A128722AB308A110A128722AC308A118E
:102BD0000A128722AD308A110A128722AD308A117B
:102BE0000A128722AE308A110A128722AF308A1168
:102BF0000A128722B0308A110A128722B0308A1155
:102C00000A128722B1308A110A128722B2308A1141
:102C10000A128722B3308A110A128722B4308A112D
:102C20000A128722B4308A110A128722B5308A111B
:102C30000A128722B6308A110A128722B7308A1107
:102C40000A128722B7308A110A128722B8308A11F5
:102C50000A128722B9308A110A128722BA308A11E1
:102C60000A128722BB308A110A128722BB308A11CE
:102C70000A128722BC308A110A128722BD308A11BB
:102C80000A128722BE308A110A128722BE308A11A8
:102C90000A128722BF308A110A128722C0308A1195
:102CA0000A128722C1308A110A128722C2308A1181
:102CB0000A128722C2308A110A128722C3308A116F
:102CC0000A128722C4308A110A128722C5308A115B
:102CD0000A128722C6308A110A128722C7308A1147
:102CE0000A128722C8308A110A128722CA308A1132
:102CF0000A128722CC308A110A128722CE308A111A
:102D00000A128722D0308A110A128722D2308A1101
:102D10000A128722D4308A110A128722D6308A11E9
:102D20000A128722D8308A110A128722DA308A11D1
:102D30000A128722DC308A110A1287220800B13079
:102D40008A110A128722AE308A110A128722AB300A
:102D50008A110A128722A8308A110A128722A53006
:102D60008A110A128722A2308A110A1287229F3002
:102D70008A110A1287229C308A110A1287229930FE
:102D80008A110A12872296308A110A1287229330FA
:102D90008A110A12872290308A110A1287228D30F6
:102DA0008A110A1287228A308A110A1287228730F2
:102DB0008A110A12872284308A110A1287228130EE
:102DC0008A110A1287227E308A110A1287227B30EA
:102DD0008A110A12872278308A110A128722080083
:102DE000D9308A110A128722D6308A110A12872214
:102DF000D3308A110A128722D0308A110A12872210
:102E0000CD308A110A128722CA308A110A1287220B
:102E1000C7308A110A128722C4308A110A12872207
:102E2000C1308A110A128722BE308A110A12872203
:102E3000BB308A110A128722B8308A110A128722FF
:102E4000B5308A110A128722B2308A110A128722FB
:102E5000AF308A110A128722AC308A110A128722F7
:102E6000A9308A110A128722A6308A110A128722F3
:102E7000A3308A110A128722A0308A110A128722EF
:102E80009D308A110A1287229A308A110A128722EB
:102E900097308A110A12872294308A110A128722E7
:102EA00091308A110A1287228E308A110A128722E3
:102EB0008B308A110A12872288308A110A128722DF
:102EC00085308A110A12872282308A110A128722DB
:102ED0007F308A110A1287227C308A110A128722D7
:0A2EE00078308A110A1287220800D8
:02400E00763FFB
:024200000100BB
:024202000100B9
:024204000000B8
:02420600640052
:02420800320082
:02420A0064004E
:02420C0032007E
:02420E0014009A
:02421000630049
:00000001FF
