:020000040000FA
:020000003A289C
:08000800A016F430A500A100D0
:100010000308A20006080B108B10061C11282017DD
:100020001228A01722088300A10E210E09000F3903
:100030008207303431343234333434343534363466
:100040003734383439344134423443344434453419
:1000500046340F3982070000232D2D2D372D412DD9
:100060004B2D552D5F2D692D732D7D2D872D912DB8
:100070009B2DA52D8312831603130D30810083124F
:10008000031318308B008316031300308C00831683
:1000900003132C308500831603133130860083163A
:1000A0000313013087008312031300309000831282
:1000B000031306309200831203130C30970083124F
:1000C00003130C309D0083160313623092008316D5
:1000D000031300309400831203130030940083163E
:1000E000031300309100831603130030980083122D
:1000F0000313003098008312031300309F0083160F
:10010000031300309F008312E624FB24BA2601303B
:100110003624A626063036240C30362414303624F5
:10012000383036244030362404303B240E303B2413
:1001300015303B2404303B2404303B2404303B2462
:1001400004303B2400303B2404303B2404303B2467
:1001500004303B2404303B2415303B240E303B2438
:1001600004303B2400303B2418303B2418303B241F
:1001700000303B2407303B2408303B2408303B242C
:1001800007303B2400303B24A010061C7624B50128
:10019000A0122013A013F5251026031100304406E9
:1001A000031951212012A011F525A7244519B624C1
:1001B000451DC024C519C924C51DD3244518DC24F8
:1001C000451CE624C518F124C51CFB24062576220F
:1001D000A6221C2520110608640045192A23C519EA
:1001E0009D238B176723D423201B06218B17A01B6D
:1001F0008A228B17A01EEA28A50BEA288B13A012CF
:100200003C26A010D4303624E926EA288B1333305C
:10021000AC000C30AD000430AE00861A1929AC0BCE
:100220000D296400AD0B0D29AE0B0D2920138B1782
:1002300008009C263330AC000C30AD000430AE001A
:10024000861E2C29AC0B20296400AD0B2029AE0B97
:10025000202920138B170800A0184029201A5429A0
:10026000A0197B294418A229C418A62944195A2A7E
:10027000C419BE29441AC229C41A5E2A441B622A20
:10028000061A4429061E4C290310441B4929C40D93
:10029000A62A4030C400A62A031044185129C40CD1
:1002A000A62A0130C400A62A061A5829061E5E296D
:1002B000031163303606031D64290629031100303B
:1002C0003606031D66290629B60A6829B603682979
:1002D000B1013608B0000824853036243030A7003C
:1002E00041081720A706031920303B244208172095
:1002F0003B24EC260800061A7F29061E85290311D7
:1003000063303706031D8B29062903110030370699
:10031000031D8D290629B70A8F29B7038F29B1013B
:100320003708B0000824853036243030A700410853
:100330001720A706031920303B24420817203B242E
:10034000EC260800061AB62C061EC02C4519AA2950
:10035000451DF129061AAE29061EB4290311FF30E6
:100360004606031DBA29062903110A304606031D55
:10037000BC290629C60ADA29C603DA29061AC92CB5
:10038000061ED32CC519C629C51D1A2A061ACA2944
:10039000061ED0290311FF304806031DD629062961
:1003A00003110A304806031DD8290629C80A2E2A37
:1003B000C8032E2AB1014608B000B20008248B30D1
:1003C00036243D273030A70040081720A706031920
:1003D00020303B24410817203B24420817203B24AF
:1003E0000800061AF529061EFB290311633047068B
:1003F000031D012A0629031100304706031D032AA5
:100400000629C70A052AC703052AB1014708B00013
:100410009B0008248B3036241F273030A70041086A
:100420001720A706031920303B24420817203B243D
:10043000EC260800061A1E2A061E242A0311633021
:100440004906031D2A2A0629031100304906031D07
:100450002C2A0629C90A452AC903452AB101480898
:10046000B000B3000824CB3036243D273030A7003D
:1004700040081720A706031920303B244108172005
:100480003B24420817203B240800B1014908B00072
:1004900095000824CB3036241F273030A7004108B0
:1004A0001720A706031920303B24420817203B24BD
:1004B000EC260800061ADC2C061EE62C061AF12C87
:1004C000061EFB2C061A662A061E6C2A03110E3025
:1004D0004306031D722A0629031101304306031D3A
:1004E000742A0629C30A762AC303762AB10143086F
:1004F000B0000824A13036243030A700410817206E
:10050000A706031920303B24420817203B24430848
:10051000292808008B13A0130130AC004530AD0032
:100520001530AE00AC0B922A06189D2A6400AD0B64
:10053000922AAE0B922AFE25432F0230A006D43019
:100540003624A0183427A01CE9260800C325441827
:10055000D925C418DD254419E125C419E525441A17
:10056000E925C41AED25441BF125A01320138B1790
:1005700008002015DF22F4222230A6006723D423AE
:10058000061CDC2AC519D72A2A23201808002A238A
:10059000201808002A232A232A232A232A232A234D
:1005A0002A232A23A60BBE2A2019D92A08009D2314
:1005B000C72A0130A600BE2AE6242010D428B000A5
:1005C000B200B1010824943036243030A70040082E
:1005D0001720A706031920303B24410817203B248D
:1005E000420817203B240800AA0FF72AAB0F2A085D
:1005F000B0002B08B10008249A3036243030A70010
:1006000040081720A70603190D2B3B24410817208B
:100610003B24420817203B240800E9263030A7007D
:1006200041081720A706031920303B244208172051
:100630003B240800AA01AB011525DC2497303624A1
:10064000EF26E926E9269D3036242527E9261F27AF
:100650003A270800831203139130071CA1309F0032
:100660008316031380309F0083129C261F15962645
:100670001F19382B1E08B100831603131E0883129E
:10068000B000031103013106031D532B3008031082
:100690003202031C532B4C2B031120103708340655
:1006A000031D5E2B080020112018080003110030E4
:1006B0003406031D622B03019B000800B40A3408B2
:1006C0009B000800B403B40134089B0008008312A7
:1006D00003139130071CA1309F0083160313803051
:1006E0009F0083129C261F1596261F19752B1E0826
:1006F000B100831603131E088312B0000824813052
:1007000036243F083F18992B31080310023031027C
:100710000318992B3030A70040081720A7060319AB
:1007200020303B24410817203B24420817203B245B
:100730000800DD26DD26DD2608008312031399302C
:100740009F008316031380309F0083129C261F1581
:1007500096261F19A92B1E08B100831603131E0825
:100760008312B000031103013106031DC32B3008AF
:1007700003103302031CC32BBD2B031136083506AF
:10078000031DCB2B0800031100303506031DCF2BB2
:10079000030195000800B50A350895000800B50367
:1007A000B5013508950008008312031399309F00A6
:1007B0008316031380309F0083129C261F159626F4
:1007C0001F19E02B1E08B100831603131E088312A5
:1007D000B0000824C13036243F083F18042C3108EB
:1007E0000310023031020318042C3030A7004008F7
:1007F0001720A706031920303B24410817203B246B
:10080000420817203B240800DD26DD26DD260800EF
:100810003008BD003108BC001030B800B901BA0181
:10082000BB01242C3330B907BA07BB070330B91D0D
:10083000B902BA1DBA02BB1DBB023030B91FB902E2
:10084000BA1FBA02BB1FBB02BD0DBC0DBB0DBA0D5A
:10085000B90DB80B122C3908BE003A0EBF003A0889
:10086000C0003B0EC1003B08C2000800A300652485
:100870006E2440240800A30065247224402408004C
:10088000A31B0716A31F0712231B8716231F8712FC
:10089000A31A0717A31E0713231A8717231E8713EC
:1008A000A3198614A31D861023190615231D0611EE
:1008B000A3188615A31C861123180617231C0613DC
:1008C0006A249C2665249C260800241624102408EB
:1008D000850008002414240885000800A4102408BA
:1008E00085000800A414240885000800F525803040
:1008F0003624F5261F2737272E274027E0261026E7
:100900006821BD26BD26201606210618832C64000A
:100910008312031707308D008312031336087826DD
:100920002012F52580303624F2268F21BD26BD26E3
:10093000A01506210618982C6400831203170830AE
:100940008D008312031337087826A0110800803029
:100950003624F22684303624EF26E926C0303624A9
:10096000F526C4303624EF26E926080086303624E2
:10097000F8262B2728271C2745152826DA210800CA
:10098000863036240A27F826192701274511052223
:100990000800C6303624F8262B2728271C27C51523
:1009A00028262E220800C63036240A27F8261927C2
:1009B0000127C51145220800903036241C2719272D
:1009C000E926E9260C309D004514080090303624B5
:1009D0001C2707270727E92600309D0087104510B0
:1009E0000800D03036241C271927E926E9260C30C8
:1009F0009700C5140800D03036241C270727072786
:100A0000E926003097000711C510080095303624FC
:100A10002827042716271F27DD261F2722271C2704
:100A200007270D27132704270800A4303624222780
:100A30002B271927E9260800A43036242527282744
:100A40001C271F270800AF25BB25E0303624CB2606
:100A5000DA26C826EF26E9260800AF25BB25E030B8
:100A60003624CB26DA26D726EF26E9260800AF253E
:100A7000BB25E0303624CE26C826C826EF26E92638
:100A80000800AF25BB25E0303624CE26C826D72661
:100A9000EF26E9260800AF25BB25E0303624CE2618
:100AA000CB26C826EF26E9260800AF25BB25E03077
:100AB0003624CE26CB26D726EF26E9260800AF25FA
:100AC000BB25E0303624CE26CE26C826EF26E926E2
:100AD0000800B525BB25E0303624CE26CE26D72605
:100AE000EF26E9260800B525BB25E0303624CE26C2
:100AF000D126C826EF26E9260800B525BB25E0301B
:100B00003624CE26D126D726EF26E9260800B5259D
:100B1000BB25E0303624CE26D426C826EF26E9268B
:100B20000800B525BB25E0303624CE26D426D726AE
:100B3000EF26E9260800B525BB25E0303624CE2671
:100B4000D726C826EF26E9260800B525BB25E030C4
:100B50003624CE26D726D726EF26E9260800D7301A
:100B600036241F273127E3260800D73036241F27D5
:100B70003127DD260800DB303624282737272E27AB
:100B80004027E026080085303624E9268A303624BE
:100B9000E9268F303624E926C5303624E926CA30C6
:100BA0003624E926CF303624E92694303624E92647
:100BB000080085303624E62608008A303624E626EA
:100BC00008008F303624E6260800C5303624E62695
:100BD0000800CA303624E6260800CF303624E62640
:100BE000080094303624E62608007830A9008C26C8
:100BF00005128C260516A90BF72D080000309D0064
:100C00008710F525F525F525F525F525F525F52597
:100C1000F525F525F525F525F5250C309D00080071
:100C2000640000302F26C30001302F26C40002309C
:100C30002F26C500640003302F26C60004302F265F
:100C4000C70005302F26C800640006302F26C900D3
:100C500007302F26B60008302F26B7000800831271
:100C600003178D00831603178C130C1483120317BC
:100C70000C0883120313080064008312031700306A
:100C80008D00831203134308782683120317013063
:100C90008D00831203134408782683120317023051
:100CA0008D0083120313450878266400831203170E
:100CB00003308D008312031346087826831203172E
:100CC00004308D008312031347087826831203171C
:100CD00005308D00831203134808782664008312C0
:100CE000031706308D008312031349087826080085
:100CF000831203178C00831603178C130C155530C1
:100D00008D00AA308D008C14831603178C18862E44
:100D10000C118312031308009730A7000330A800BA
:100D2000A70B902EA80B902E640008003530A7006A
:100D3000A70B982E000008002E30A7000630A80050
:100D4000A70BA02EA80BA02E640008009C269C26B2
:100D50009C269C269C260800BA30A7000430A800D8
:100D60000230A900A70BB22EA80BB22EA90BB22EEF
:100D700064000800AC26AC260800BA26BA26BA26BB
:100D8000BA26BA26BA26BA26BA26BA26BA2608003B
:100D900030303B24080031303B24080032303B2403
:100DA000080033303B24080034303B240800353041
:100DB0003B24080039303B2408002D303B24080038
:100DC0003D303B2408002B303B2408003E303B24C0
:100DD000080020303B24080025303B240800023066
:100DE0003B24080000303B24080001303B2408006D
:100DF00041303B24080042303B24080043303B2470
:100E0000080044303B24080045303B2408004630AD
:100E10003B24080048303B24080049303B240800AC
:100E20004B303B2408004C303B2408004D303B2421
:100E300008004E303B2408004F303B24080050305F
:100E40003B24080052303B24080053303B24080068
:100E500054303B24080055303B24080061303B24CB
:100E6000080062303B2408006B303B2408006D30E2
:100E70003B24080072303B24080074303B240800F7
:060E800078303B2408005D
:101000000A128A15201443080F3982070000172896
:10101000942811299E293B2AE82AA92B762CD32C27
:10102000402DC12D4E2EEF2E8A110A1602288A114C
:101030000A121A238A110A16C7208A110A16A82230
:10104000B5308A110A12B922B6308A110A12B922B1
:10105000B7308A110A12B922B8308A110A12B9229D
:10106000B9308A110A12B922BA308A110A12B92289
:10107000BB308A110A12B922BC308A110A12B92275
:10108000BD308A110A12B922BE308A110A12B92261
:10109000BE308A110A12B922BE308A110A12B92250
:1010A000BE308A110A12B922BE308A110A12B92240
:1010B000BE308A110A12B922BE308A110A12B92230
:1010C000BE308A110A12B922BE308A110A12B92220
:1010D000BE308A110A12B9228A110A12FE25BE30C8
:1010E0008A110A12B922BE308A110A12B922BE3000
:1010F0008A110A12B922BE308A110A12B922BE30F0
:101100008A110A12B922BB308A110A12B922B830E8
:101110008A110A12B9228A110A169F268A110A1206
:10112000E6248A110A12D4288A110A121A238A1173
:101130000A16C7208A110A16A822B6308A110A1286
:10114000B922B8308A110A12B922BA308A110A12A9
:10115000B922BC308A110A12B922BE308A110A1291
:10116000B922C0308A110A12B922C2308A110A1279
:10117000B922C3308A110A12B922C3308A110A1265
:10118000B922C3308A110A12B922C3308A110A1255
:10119000B922C3308A110A12B922C3308A110A1245
:1011A000B922C3308A110A12B922C3308A110A1235
:1011B000B922C3308A110A12B922C3308A110A1225
:1011C000B9228A110A12FE25C3308A110A12B922E5
:1011D000C3308A110A12B922C3308A110A12B92205
:1011E000C3308A110A12B922C3308A110A12B922F5
:1011F000C0308A110A12B922BD308A110A12B922EE
:10120000BA308A110A12B922B7308A110A12B922E9
:101210008A110A169F268A110A12E6248A110A12D6
:10122000D4288A110A121A238A110A16C7208A1191
:101230000A16A822B6308A110A12B922B8308A11C9
:101240000A12B922BA308A110A12B922BC308A11A4
:101250000A12B922BE308A110A12B922C0308A118C
:101260000A12B922C2308A110A12B922C4308A1174
:101270000A12B922C6308A110A12B922C8308A115C
:101280000A12B922C8308A110A12B922C8308A114A
:101290000A12B922C8308A110A12B922C8308A113A
:1012A0000A12B922C8308A110A12B922C8308A112A
:1012B0000A12B922C8308A110A12B922C8308A111A
:1012C0000A12B922C8308A110A12B9228A110A12E6
:1012D000FE25C8308A110A12B922C8308A110A12B2
:1012E000B922C8308A110A12B922C8308A110A12EA
:1012F000B922C8308A110A12B922C5308A110A12DD
:10130000B922C2308A110A12B922BF308A110A12D8
:10131000B922BC308A110A12B922B9308A110A12D4
:10132000B922B6308A110A12B9228A110A169F26EA
:101330008A110A12E6248A110A12D4288A110A1282
:101340001A238A110A16C7208A110A16A822B63053
:101350008A110A12B922B8308A110A12B922BA3097
:101360008A110A12B922BC308A110A12B922BE307F
:101370008A110A12B922C0308A110A12B922C23067
:101380008A110A12B922C4308A110A12B922C6304F
:101390008A110A12B922C8308A110A12B922CA3037
:1013A0008A110A12B922CC308A110A12B922CD3020
:1013B0008A110A12B922CD308A110A12B922CD300F
:1013C0008A110A12B922CD308A110A12B922CD30FF
:1013D0008A110A12B922CD308A110A12B922CD30EF
:1013E0008A110A12B922CD308A110A12B922CD30DF
:1013F0008A110A12B922CD308A110A12B9228A1131
:101400000A12FE25CD308A110A12B922CD308A1176
:101410000A12B922CD308A110A12B922CD308A11AE
:101420000A12B922CD308A110A12B922CA308A11A1
:101430000A12B922C7308A110A12B922C4308A119D
:101440000A12B922C1308A110A12B922BE308A1199
:101450000A12B922BB308A110A12B922B7308A1196
:101460000A12B9228A110A169F268A110A12E62444
:101470008A110A12D4288A110A121A238A110A160A
:10148000C7208A110A16A822B6308A110A12B92278
:10149000B8308A110A12B922BA308A110A12B92256
:1014A000BC308A110A12B922BE308A110A12B9223E
:1014B000C0308A110A12B922C2308A110A12B92226
:1014C000C4308A110A12B922C6308A110A12B9220E
:1014D000C8308A110A12B922CA308A110A12B922F6
:1014E000CC308A110A12B922CE308A110A12B922DE
:1014F000D0308A110A12B922D2308A110A12B922C6
:10150000D2308A110A12B922D2308A110A12B922B3
:10151000D2308A110A12B922D2308A110A12B922A3
:10152000D2308A110A12B922D2308A110A12B92293
:10153000D2308A110A12B922D2308A110A12B92283
:10154000D2308A110A12B9228A110A12FE25D2302B
:101550008A110A12B922D2308A110A12B922D23063
:101560008A110A12B922D2308A110A12B922D23053
:101570008A110A12B922CF308A110A12B922CC304C
:101580008A110A12B922C9308A110A12B922C63048
:101590008A110A12B922C3308A110A12B922C03044
:1015A0008A110A12B922BD308A110A12B922BA3040
:1015B0008A110A12B922B7308A110A12B9228A1185
:1015C0000A169F268A110A12E6248A110A12D428C2
:1015D0008A110A121A238A110A16C7208A110A16BA
:1015E000A822B6308A110A12B922B8308A110A121A
:1015F000B922BA308A110A12B922BC308A110A12F1
:10160000B922BE308A110A12B922C0308A110A12D8
:10161000B922C2308A110A12B922C4308A110A12C0
:10162000B922C6308A110A12B922C8308A110A12A8
:10163000B922CA308A110A12B922CC308A110A1290
:10164000B922CE308A110A12B922D0308A110A1278
:10165000B922D2308A110A12B922D4308A110A1260
:10166000B922D6308A110A12B922D7308A110A1249
:10167000B922D7308A110A12B922D7308A110A1238
:10168000B922D7308A110A12B922D7308A110A1228
:10169000B922D7308A110A12B922D7308A110A1218
:1016A000B922D7308A110A12B922D7308A110A1208
:1016B000B922D7308A110A12B9228A110A12FE25DC
:1016C000D7308A110A12B922D7308A110A12B922E8
:1016D000D7308A110A12B922D7308A110A12B922D8
:1016E000D7308A110A12B922D4308A110A12B922CB
:1016F000D1308A110A12B922CE308A110A12B922C7
:10170000CB308A110A12B922C8308A110A12B922C2
:10171000C5308A110A12B922C2308A110A12B922BE
:10172000BF308A110A12B922BC308A110A12B922BA
:10173000B9308A110A12B922B6308A110A12B922B6
:101740008A110A169F268A110A12E6248A110A12A1
:10175000D4288A110A121A238A110A16C7208A115C
:101760000A16A822B6308A110A12B922B8308A1194
:101770000A12B922BA308A110A12B922BC308A116F
:101780000A12B922BE308A110A12B922C0308A1157
:101790000A12B922C2308A110A12B922C4308A113F
:1017A0000A12B922C6308A110A12B922C8308A1127
:1017B0000A12B922CA308A110A12B922CC308A110F
:1017C0000A12B922CE308A110A12B922D0308A11F7
:1017D0000A12B922D2308A110A12B922D4308A11DF
:1017E0000A12B922D6308A110A12B922D8308A11C7
:1017F0000A12B922DA308A110A12B922DC308A11AF
:101800000A12B922DC308A110A12B922DC308A119C
:101810000A12B922DC308A110A12B922DC308A118C
:101820000A12B922DC308A110A12B922DC308A117C
:101830000A12B922DC308A110A12B922DC308A116C
:101840000A12B922DC308A110A12B9228A110A124C
:10185000FE25DC308A110A12B922DC308A110A1204
:10186000B922DC308A110A12B922DC308A110A123C
:10187000B922DC308A110A12B922D9308A110A122F
:10188000B922D6308A110A12B922D3308A110A122B
:10189000B922D0308A110A12B922CD308A110A1227
:1018A000B922CA308A110A12B922C6308A110A1224
:1018B000B922C3308A110A12B922C0308A110A1221
:1018C000B922BD308A110A12B922BA308A110A121D
:1018D000B922B7308A110A12B9228A110A169F2634
:1018E0008A110A12E6248A110A12D4288A110A12CD
:1018F0001A238A110A16C7208A110A161124DE300B
:101900008A110A12B922E0308A110A12B922E13092
:101910008A110A12B922E1308A110A12B922E13081
:101920008A110A12B922E1308A110A12B922E13071
:101930008A110A12B922E1308A110A12B922E13061
:101940008A110A12B922E1308A110A12B922E13051
:101950008A110A12B922E1308A110A12B9228A11B7
:101960000A12FE25E1308A110A12B922E1308A11E9
:101970000A12B922E1308A110A12B922E1308A1121
:101980000A12B922E1308A110A12B922DE308A1114
:101990000A12B9228A110A16F0268A110A12E624BE
:1019A0008A110A12D4288A110A121A238A110A16D5
:1019B000C7208A110A161124DE308A110A12B922B0
:1019C000E0308A110A12B922E2308A110A12B922D1
:1019D000E4308A110A12B922E6308A110A12B922B9
:1019E000E6308A110A12B922E6308A110A12B922A7
:1019F000E6308A110A12B922E6308A110A12B92297
:101A0000E6308A110A12B922E6308A110A12B92286
:101A1000E6308A110A12B922E6308A110A12B92276
:101A2000E6308A110A12B9228A110A12FE25E6301E
:101A30008A110A12B922E6308A110A12B922E63056
:101A40008A110A12B922E6308A110A12B922E63046
:101A50008A110A12B922E3308A110A12B922E0303F
:101A60008A110A12B922DD308A110A12B9228A11AA
:101A70000A16F0268A110A12E6248A110A12D428BC
:101A80008A110A121A238A110A16C7208A110A1605
:101A90001124DE308A110A12B922E0308A110A12AA
:101AA000B922E2308A110A12B922E4308A110A12EC
:101AB000B922E6308A110A12B922E8308A110A12D4
:101AC000B922EA308A110A12B922EB308A110A12BD
:101AD000B922EB308A110A12B922EB308A110A12AC
:101AE000B922EB308A110A12B922EB308A110A129C
:101AF000B922EB308A110A12B922EB308A110A128C
:101B0000B922EB308A110A12B922EB308A110A127B
:101B1000B922EB308A110A12B9228A110A12FE2563
:101B2000EB308A110A12B922EB308A110A12B9225B
:101B3000EB308A110A12B922EB308A110A12B9224B
:101B4000EB308A110A12B922E8308A110A12B9223E
:101B5000E5308A110A12B922E2308A110A12B9223A
:101B6000DF308A110A12B922DC308A110A12B92236
:101B70008A110A16F0268A110A12E6248A110A121C
:101B8000D4288A110A121A238A110A16C7208A1128
:101B90000A161124DE308A110A12B922E0308A11A5
:101BA0000A12B922E2308A110A12B922E4308A11EB
:101BB0000A12B922E6308A110A12B922E8308A11D3
:101BC0000A12B922EA308A110A12B922EC308A11BB
:101BD0000A12B922EE308A110A12B922F0308A11A3
:101BE0000A12B922F0308A110A12B922F0308A1191
:101BF0000A12B922F0308A110A12B922F0308A1181
:101C00000A12B922F0308A110A12B922F0308A1170
:101C10000A12B922F0308A110A12B922F0308A1160
:101C20000A12B922F0308A110A12B9228A110A1254
:101C3000FE25F0308A110A12B922F0308A110A12F8
:101C4000B922F0308A110A12B922F0308A110A1230
:101C5000B922F0308A110A12B922ED308A110A1223
:101C6000B922EA308A110A12B922E7308A110A121F
:101C7000B922E4308A110A12B922E1308A110A121B
:101C8000B922DE308A110A12B9228A110A16F02608
:101C90008A110A12E6248A110A12D4288A110A1219
:101CA0001A238A110A16C7208A110A161124DE3057
:101CB0008A110A12B922E0308A110A12B922E230DE
:101CC0008A110A12B922E4308A110A12B922E630C6
:101CD0008A110A12B922E8308A110A12B922EA30AE
:101CE0008A110A12B922EC308A110A12B922EE3096
:101CF0008A110A12B922F0308A110A12B922F2307E
:101D00008A110A12B922F4308A110A12B922F53066
:101D10008A110A12B922F5308A110A12B922F53055
:101D20008A110A12B922F5308A110A12B922F53045
:101D30008A110A12B922F5308A110A12B922F53035
:101D40008A110A12B922F5308A110A12B922F53025
:101D50008A110A12B922F5308A110A12B9228A119F
:101D60000A12FE25F5308A110A12B922F5308A11BD
:101D70000A12B922F5308A110A12B922F5308A11F5
:101D80000A12B922F5308A110A12B922F2308A11E8
:101D90000A12B922EF308A110A12B922EC308A11E4
:101DA0000A12B922E9308A110A12B922E6308A11E0
:101DB0000A12B922E3308A110A12B922E0308A11DC
:101DC0000A12B922DD308A110A12B9228A110A16C2
:101DD000F0268A110A12E6248A110A12D4288A11DE
:101DE0000A121A238A110A16C7208A110A16112408
:101DF000DE308A110A12B922E0308A110A12B922A1
:101E0000E2308A110A12B922E4308A110A12B92288
:101E1000E6308A110A12B922E8308A110A12B92270
:101E2000EA308A110A12B922EC308A110A12B92258
:101E3000EE308A110A12B922F0308A110A12B92240
:101E4000F2308A110A12B922F4308A110A12B92228
:101E5000F6308A110A12B922F8308A110A12B92210
:101E6000FA308A110A12B922FA308A110A12B922FA
:101E7000FA308A110A12B922FA308A110A12B922EA
:101E8000FA308A110A12B922FA308A110A12B922DA
:101E9000FA308A110A12B922FA308A110A12B922CA
:101EA000FA308A110A12B922FA308A110A12B922BA
:101EB0008A110A12FE25FA308A110A12B922FA3062
:101EC0008A110A12B922FA308A110A12B922FA309A
:101ED0008A110A12B922FA308A110A12B922F7308D
:101EE0008A110A12B922F4308A110A12B922F13089
:101EF0008A110A12B922EE308A110A12B922EB3085
:101F00008A110A12B922E8308A110A12B922E53080
:101F10008A110A12B922E2308A110A12B922DF307C
:101F20008A110A12B922DC308A110A12B9228A11E6
:101F30000A16F0268A110A12E6248A110A12D428F7
:041F40000034003435
:102000000A168A118A110A121A238A110A16C7207F
:102010008A110A161124DE308A110A12B922E03020
:102020008A110A12B922E2308A110A12B922E43066
:102030008A110A12B922E6308A110A12B922E8304E
:102040008A110A12B922EA308A110A12B922EC3036
:102050008A110A12B922EE308A110A12B922F0301E
:102060008A110A12B922F2308A110A12B922F43006
:102070008A110A12B922F6308A110A12B922F830EE
:102080008A110A12B922FA308A110A12B922FC30D6
:102090008A110A12B922FE308A110A12B922FF30BF
:1020A0008A110A12B922FF308A110A12B922FF30AE
:1020B0008A110A12B922FF308A110A12B922FF309E
:1020C0008A110A12B922FF308A110A12B922FF308E
:1020D0008A110A12B922FF308A110A12B922FF307E
:1020E0008A110A12B922FF308A110A12B9228A1102
:1020F0000A12FE25FF308A110A12B922FF308A1116
:102100000A12B922FF308A110A12B922FF308A114D
:102110000A12B922FF308A110A12B922FC308A1140
:102120000A12B922F9308A110A12B922F6308A113C
:102130000A12B922F3308A110A12B922F0308A1138
:102140000A12B922ED308A110A12B922EA308A1134
:102150000A12B922E7308A110A12B922E5308A112F
:102160000A12B922E2308A110A12B922DF308A112A
:102170000A12B922DC308A110A12B9228A110A160F
:10218000F0268A110A12E6248A110A12D4281E3077
:102190008A110A12B92220308A110A12B922223079
:1021A0008A110A12B92224308A110A12B922263061
:1021B0008A110A12B92228308A110A12B9222A3049
:1021C0008A110A12B9222C308A110A12B9222E3031
:1021D0008A110A12B92230308A110A12B922323019
:1021E0008A110A12B92234308A110A12B922363001
:1021F0008A110A12B92238308A110A12B9223A30E9
:102200008A110A12B9223C308A110A12B9223E30D0
:102210008A110A12B92240308A110A12B9224230B8
:102220008A110A12B92244308A110A12B9224630A0
:102230008A110A12B92247308A110A12B92248308B
:102240008A110A12B92249308A110A12B9224A3077
:102250008A110A12B9224B308A110A12B9224C3063
:102260008A110A12B9224D308A110A12B9224E304F
:102270008A110A12B9224F308A110A12B92250303B
:102280008A110A12B92251308A110A12B922523027
:102290008A110A12B92253308A110A12B922543013
:1022A0008A110A12B92255308A110A12B9225630FF
:1022B0008A110A12B92257308A110A12B9225830EB
:1022C0008A110A12B92259308A110A12B9225A30D7
:1022D0008A110A12B9225B308A110A12B9225C30C3
:1022E0008A110A12B9225D308A110A12B9225E30AF
:1022F0008A110A12B9225F308A110A12B92260309B
:102300008A110A12B92261308A110A12B922623086
:102310008A110A12B92263308A110A12B922643072
:102320008A110A12B92265308A110A12B92266305E
:102330008A110A12B92267308A110A12B92268304A
:102340008A110A12B92269308A110A12B9226A3036
:102350008A110A12B9226B308A110A12B9226C3022
:102360008A110A12B9226D308A110A12B9226F300D
:102370008A110A12B92270308A110A12B9227130F8
:102380008A110A12B92272308A110A12B9227330E4
:102390008A110A12B92274308A110A12B9227530D0
:1023A0008A110A12B92276308A110A12B9227730BC
:1023B0008A110A12B92278308A110A12B9227930A8
:1023C0008A110A12B9227A308A110A12B9227B3094
:1023D0008A110A12B9227C308A110A12B9227D3080
:1023E0008A110A12B9227E308A110A12B9227F306C
:1023F0008A110A12B92280308A110A12B922813058
:102400008A110A12B92282308A110A12B922833043
:102410008A110A12B92284308A110A12B92285302F
:102420008A110A12B92286308A110A12B92287301B
:102430008A110A12B92288308A110A12B922893007
:102440008A110A12B9228A308A110A12B9228B30F3
:102450008A110A12B9228C308A110A12B9228C30E0
:102460008A110A12B9228C308A110A12B9228D30CF
:102470008A110A12B9228D308A110A12B9228D30BE
:102480008A110A12B9228E308A110A12B9228E30AC
:102490008A110A12B9228E308A110A12B9228F309B
:1024A0008A110A12B9228F308A110A12B9228F308A
:1024B0008A110A12B92290308A110A12B922903078
:1024C0008A110A12B92290308A110A12B922913067
:1024D0008A110A12B92291308A110A12B922913056
:1024E0008A110A12B92292308A110A12B922923044
:1024F0008A110A12B92292308A110A12B922933033
:102500008A110A12B92293308A110A12B922933021
:102510008A110A12B92294308A110A12B92294300F
:102520008A110A12B92294308A110A12B9229530FE
:102530008A110A12B92295308A110A12B9229530ED
:102540008A110A12B92296308A110A12B922080099
:1025500096308A110A12B92296308A110A12B922CB
:1025600097308A110A12B92297308A110A12B922B9
:1025700097308A110A12B92298308A110A12B922A8
:1025800098308A110A12B92298308A110A12B92297
:1025900099308A110A12B92299308A110A12B92285
:1025A00099308A110A12B9229A308A110A12B92274
:1025B0009A308A110A12B9229A308A110A12B92263
:1025C0009B308A110A12B9229B308A110A12B92251
:1025D0009B308A110A12B9229C308A110A12B92240
:1025E0009C308A110A12B9229C308A110A12B9222F
:1025F0009D308A110A12B9229D308A110A12B9221D
:102600009D308A110A12B9229E308A110A12B9220B
:102610009E308A110A12B9229E308A110A12B922FA
:102620009F308A110A12B9229F308A110A12B922E8
:102630009F308A110A12B922A0308A110A12B922D7
:10264000A0308A110A12B922A0308A110A12B922C6
:10265000A1308A110A12B922A1308A110A12B922B4
:10266000A1308A110A12B922A2308A110A12B922A3
:10267000A2308A110A12B922A2308A110A12B92292
:10268000A3308A110A12B922A3308A110A12B92280
:10269000A3308A110A12B922A4308A110A12B9226F
:1026A000A4308A110A12B922A4308A110A12B9225E
:1026B000A5308A110A12B922A5308A110A12B9224C
:1026C000A5308A110A12B922A6308A110A12B9223B
:1026D000A6308A110A12B922A6308A110A12B9222A
:1026E000A7308A110A12B922A7308A110A12B92218
:1026F000A7308A110A12B922A8308A110A12B92207
:10270000A8308A110A12B922A8308A110A12B922F5
:10271000A9308A110A12B922A9308A110A12B922E3
:10272000A9308A110A12B922AA308A110A12B922D2
:10273000AA308A110A12B922AA308A110A12B922C1
:10274000AB308A110A12B922AB308A110A12B922AF
:10275000AB308A110A12B922AC308A110A12B9229E
:10276000AC308A110A12B922AC308A110A12B9228D
:10277000AD308A110A12B922AD308A110A12B9227B
:10278000AD308A110A12B922AE308A110A12B9226A
:10279000AE308A110A12B922AE308A110A12B92259
:1027A000AF308A110A12B922AF308A110A12B92247
:1027B000AF308A110A12B922B0308A110A12B92236
:1027C000B0308A110A12B922B0308A110A12B92225
:1027D000B1308A110A12B922B1308A110A12B92213
:1027E000B1308A110A12B922B2308A110A12B92202
:1027F000B2308A110A12B922B2308A110A12B922F1
:10280000B3308A110A12B922B3308A110A12B922DE
:10281000B3308A110A12B922B4308A110A12B922CD
:10282000080097308A110A12B92298308A110A12C8
:10283000B92298308A110A12B92299308A110A12E3
:10284000B9229A308A110A12B9229B308A110A12CF
:10285000B9229B308A110A12B9229C308A110A12BD
:10286000B9229D308A110A12B9229E308A110A12A9
:10287000B9229F308A110A12B922A0308A110A1295
:10288000B922A0308A110A12B922A1308A110A1283
:10289000B922A2308A110A12B922A2308A110A1270
:1028A000B922A3308A110A12B922A4308A110A125D
:1028B000B922A5308A110A12B922A6308A110A1249
:1028C000B922A6308A110A12B922A7308A110A1237
:1028D000B922A8308A110A12B922A9308A110A1223
:1028E000B922A9308A110A12B922AA308A110A1211
:1028F000B922AB308A110A12B922AC308A110A12FD
:10290000B922AD308A110A12B922AD308A110A12E9
:10291000B922AE308A110A12B922AF308A110A12D6
:10292000B922B0308A110A12B922B0308A110A12C3
:10293000B922B1308A110A12B922B2308A110A12B0
:10294000B922B3308A110A12B922B4308A110A129C
:10295000B922B4308A110A12B922B5308A110A128A
:10296000B922B6308A110A12B922B7308A110A1276
:10297000B922B7308A110A12B922B8308A110A1264
:10298000B922B9308A110A12B922BA308A110A1250
:10299000B922BB308A110A12B922BB308A110A123D
:1029A000B922BC308A110A12B922BD308A110A122A
:1029B000B922BE308A110A12B922BE308A110A1217
:1029C000B922BF308A110A12B922C0308A110A1204
:1029D000B922C1308A110A12B922C2308A110A12F0
:1029E000B922C2308A110A12B922C3308A110A12DE
:1029F000B922C4308A110A12B922C5308A110A12CA
:102A0000B922C5308A110A12B922C6308A110A12B7
:102A1000B922C7308A110A12B922C8308A110A12A3
:102A2000B922C9308A110A12B922C9308A110A1290
:102A3000B922CA308A110A12B922CB308A110A127D
:102A4000B922CC308A110A12B922CC308A110A126A
:102A5000B922CD308A110A12B922CE308A110A1257
:102A6000B922CF308A110A12B922D0308A110A1243
:102A7000B922D0308A110A12B922D1308A110A1231
:102A8000B922D2308A110A12B922D3308A110A121D
:102A9000B922D3308A110A12B922D4308A110A120B
:102AA000B922D5308A110A12B922D6308A110A12F7
:102AB000B922D7308A110A12B922D7308A110A12E4
:102AC000B922D8308A110A12B922D9308A110A12D1
:102AD000B922DA308A110A12B922DA308A110A12BE
:102AE000B922DB308A110A12B922DC308A110A12AB
:102AF000B922080097308A110A12B92298308A1137
:102B00000A12B92298308A110A12B92299308A1110
:102B10000A12B9229A308A110A12B9229B308A11FC
:102B20000A12B9229B308A110A12B9229C308A11EA
:102B30000A12B9229D308A110A12B9229E308A11D6
:102B40000A12B9229F308A110A12B922A0308A11C2
:102B50000A12B922A0308A110A12B922A1308A11B0
:102B60000A12B922A2308A110A12B922A2308A119D
:102B70000A12B922A3308A110A12B922A4308A118A
:102B80000A12B922A5308A110A12B922A6308A1176
:102B90000A12B922A6308A110A12B922A7308A1164
:102BA0000A12B922A8308A110A12B922A9308A1150
:102BB0000A12B922A9308A110A12B922AA308A113E
:102BC0000A12B922AB308A110A12B922AC308A112A
:102BD0000A12B922AD308A110A12B922AD308A1117
:102BE0000A12B922AE308A110A12B922AF308A1104
:102BF0000A12B922B0308A110A12B922B0308A11F1
:102C00000A12B922B1308A110A12B922B2308A11DD
:102C10000A12B922B3308A110A12B922B4308A11C9
:102C20000A12B922B4308A110A12B922B5308A11B7
:102C30000A12B922B6308A110A12B922B7308A11A3
:102C40000A12B922B7308A110A12B922B8308A1191
:102C50000A12B922B9308A110A12B922BA308A117D
:102C60000A12B922BB308A110A12B922BB308A116A
:102C70000A12B922BC308A110A12B922BD308A1157
:102C80000A12B922BE308A110A12B922BE308A1144
:102C90000A12B922BF308A110A12B922C0308A1131
:102CA0000A12B922C1308A110A12B922C2308A111D
:102CB0000A12B922C2308A110A12B922C3308A110B
:102CC0000A12B922C4308A110A12B922C5308A11F7
:102CD0000A12B922C6308A110A12B922C7308A11E3
:102CE0000A12B922C8308A110A12B922CA308A11CE
:102CF0000A12B922CC308A110A12B922CE308A11B6
:102D00000A12B922D0308A110A12B922D2308A119D
:102D10000A12B922D4308A110A12B922D6308A1185
:102D20000A12B922D8308A110A12B922DA308A116D
:102D30000A12B922DC308A110A12B9220800B13015
:102D40008A110A12B922AE308A110A12B922AB30A6
:102D50008A110A12B922A8308A110A12B922A530A2
:102D60008A110A12B922A2308A110A12B9229F309E
:102D70008A110A12B9229C308A110A12B92299309A
:102D80008A110A12B92296308A110A12B922933096
:102D90008A110A12B92290308A110A12B9228D3092
:102DA0008A110A12B9228A308A110A12B92287308E
:102DB0008A110A12B92284308A110A12B92281308A
:102DC0008A110A12B9227E308A110A12B9227B3086
:102DD0008A110A12B92278308A110A12B92208001F
:102DE000D9308A110A12B922D6308A110A12B922B0
:102DF000D3308A110A12B922D0308A110A12B922AC
:102E0000CD308A110A12B922CA308A110A12B922A7
:102E1000C7308A110A12B922C4308A110A12B922A3
:102E2000C1308A110A12B922BE308A110A12B9229F
:102E3000BB308A110A12B922B8308A110A12B9229B
:102E4000B5308A110A12B922B2308A110A12B92297
:102E5000AF308A110A12B922AC308A110A12B92293
:102E6000A9308A110A12B922A6308A110A12B9228F
:102E7000A3308A110A12B922A0308A110A12B9228B
:102E80009D308A110A12B9229A308A110A12B92287
:102E900097308A110A12B92294308A110A12B92283
:102EA00091308A110A12B9228E308A110A12B9227F
:102EB0008B308A110A12B92288308A110A12B9227B
:102EC00085308A110A12B92282308A110A12B92277
:102ED0007F308A110A12B9227C308A110A12B92273
:0A2EE00078308A110A12B9220800A6
:02400E00763FFB
:024200000100BB
:024202000100B9
:024204000000B8
:02420600640052
:02420800320082
:02420A0064004E
:02420C0032007E
:02420E0014009A
:02421000630049
:00000001FF
