:1000000026C035C034C033C032C0CCC030C02FC0D1
:100010002EC02DC02CC02BC02AC029C028C0000073
:10002000000037000000000038000000000036002B
:10003000020202020202020202020102040810206D
:100040002004100801020000040000000000112438
:100050001FBECFE5D2E0DEBFCDBF20E0A0E6B0E01E
:1000600001C01D92A936B207E1F7E6D079C1C8CF29
:10007000823089F018F4813051F00895833019F0FE
:10008000843009F008958CB58F7D8CBD08958AB5B4
:100090008F778ABD08958AB58F7DFBCF1F93CF934D
:1000A000DF93282F30E0F901EC5BFF4F8491F901D9
:1000B000E65CFF4FD491F901E05DFF4FC491CC2382
:1000C000A1F0162F8111D4DFEC2FF0E0EE0FFF1F0F
:1000D000EC5DFF4FA591B4918FB7F894EC9111119D
:1000E00008C0D095DE23DC938FBFDF91CF911F91A5
:1000F0000895DE2BF8CFCF93DF9390E0FC01E65C10
:10010000FF4F2491805D9F4FFC0184918823D1F0A3
:1001100090E0880F991FFC01E25EFF4FA591B4911A
:10012000FC01EC5DFF4FC591D49161110EC09FB7EA
:10013000F8948C91E22FE0958E238C932881E22312
:10014000E8839FBFDF91CF9108958FB7F894EC912A
:10015000E22BEC938FBFF6CF3FB7F8948091650008
:1001600090916600A0916700B091680022B708B630
:1001700001FE05C02F3F19F00196A11DB11D3FBF23
:10018000BA2FA92F982F8827BC01CD01620F711DAE
:10019000811D911D46E0660F771F881F991F4A95A4
:1001A000D1F708951F920F920FB60F9211242F933B
:1001B0003F938F939F93AF93BF93809161009091F2
:1001C0006200A0916300B09164003091600020E370
:1001D000230F2D3758F54096A11DB11D20936000C7
:1001E0008093610090936200A0936300B0936400D9
:1001F0008091650090916600A0916700B0916800C1
:100200000196A11DB11D8093650090936600A09397
:100210006700B0936800BF91AF919F918F913F911C
:100220002F910F900FBE0F901F90189523EB230F67
:100230004196A11DB11DD2CF78948AB582608ABD46
:100240008AB581608ABD83B7826083BF83B78160CE
:1002500083BF89B7826089BF80B7826080BF3298D0
:10026000319A309A379A8CB580648CBD61E080E019
:1002700042DF61E080E012DF61E081E03CDF61E0CD
:1002800081E00CDF60E083E036DF60E084E033DFB4
:1002900060E082E030DF3324339427E4822E20E0D4
:1002A000922E0DE310E033E3A32E30E0B32EC0E036
:1002B000D0E037B8369A3699FECF94B185B1892708
:1002C0009827892704970CF446C060E080E0E6DEBA
:1002D000F4018491F801F490F501E490EE2099F096
:1002E0008111C6DEEE2DF0E0EE0FFF1FE65DFF4F41
:1002F000A591B4918C91F82231F061E080E0CEDEDE
:1003000060E081E0CBDE28DF6B017C0188EE482EC7
:1003100083E0582E612C712C1FDF6C197D098E092A
:100320009F09683E734081059105B0F3F1E04F1AD3
:1003300051086108710828EEC20E23E0D21EE11CAC
:10034000F11C411451046104710431F7209709F440
:10035000B0CF56DEAECF61E080E0A0DE61E0D1CF6D
:04036000F894FFCF3F
:00000001FF
